:020000040000FA
:1000000028080020C10000002B0100002D01000085
:10001000FFFFFFFFFFFFFFFFFFFFFFFFFFFFFFFFF0
:10002000FFFFFFFFFFFFFFFFFFFFFFFF2F010000AC
:10003000FFFFFFFFFFFFFFFF310100003301000062
:1000400035010000350100003501000035010000D8
:1000500035010000350100003501000035010000C8
:1000600035010000FFFFFFFF3501000035010000F2
:10007000350100003501000035010000FFFFFFFFE2
:10008000FFFFFFFF411200003501000035010000B5
:100090003501000035010000350100005D1700004A
:1000A000E5170000350100003501000035010000B2
:1000B0003501000035010000350100003501000068
:1000C0001D4880471D4880471D4800471D4801695D
:1000D000002908D14169002905D18169002902D18F
:1000E000C169002909D01848C1680901090D002912
:1000F0000ED005290CD006290AD0BFF34F8F134824
:100100001349016013491248C860BFF34F8FFEE7DF
:100110000E4801680E48884200D070470E480F49CB
:1001200001600A480E4901607047FEE7FEE7FEE7FE
:10013000FEE7FEE7FEE70000CD0000009D15000091
:100140006501000000030840800108400000002015
:100150000400FA0500ED00E0008108400100000005
:10016000000000000348854600F0E0FC004800471E
:10017000E11C000028080020D2B201E00270401CFF
:10018000491EFBD270470022F6E710B513460A4617
:1001900004461946FFF7F0FF204610BD421C0178C7
:1001A000401C0029FBD1801A704710B5002200E0E6
:1001B000521C835C8C5CA34201D1002BF8D1D8B2D5
:1001C000E1B2401A10BD30B504460020034600E0FD
:1001D0005B1C934203D2E05CCD5C401BF8D030BD89
:1001E00003460A780270401C491C002AF9D11846BF
:1001F0007047000070B5104D002800D12868002419
:1002000014E00A4602E09E4203D0521C1378002BF1
:10021000F9D1DAB2224307D0002B06D0002C04D04B
:1002200000210170401C04E00446401C0678002EAA
:10023000E7D12860204670BD0000002070B506465A
:1002400002F09EF9046805460A220021304600F0BB
:10025000F9FA2C6070BDF8B502464A40D40F42004E
:100260004B0052085B089A4202D2024608461146E9
:100270004A0023D0C30D4A00DDB2120EAD1A202D64
:1002800035DA49020126490AF6058A19002C00D000
:10029000524220214F1B1146B9402A411018C20D6D
:1002A0009A4221D0002C17D0012D08DCDA05801AE3
:1002B000D20F8019D207DBB200F004FBF8BDDA05DB
:1002C000801A012340001B06C01880185A4280186B
:1002D000CA0F1043490007E04908C2071143DA0575
:1002E000801A80194008801800F0E4FAF8BD610017
:1002F0000122511A001BF7E70122D2075140AAE759
:100300000122D2075040A6E770B502464A40D50FF9
:1003100040004A00ED0740085208002814D0002A87
:1003200012D0C40DD30D41020120C0055202490A6A
:10033000520AE41A091812187D34914201D3641C40
:1003400000E04900002C01DA002070BD002391423A
:1003500001D3891A0343400849000028F7D1002936
:100360000AD0914202D10121C90705E0914201D290
:10037000012101E00121C943E005C018401900F046
:1003800099FA70BDF0B507460846584087B0C00FCF
:10039000049048000E46590040084908BC1A88419C
:1003A00005D2384631461E4617460B4602465800CF
:1003B000400810434CD0300D039040055900400DCB
:1003C000490D0590401A0290402872DA1803012165
:1003D000000B09050843019004980092002805D0FD
:1003E00001995242002088410092019002984021D8
:1003F0000A1A0199009800F0A7F905460C466B46C9
:1004000007CB00F0B1F9C0197141039A0E0D00231A
:10041000D71756401A467A40164344D0049A002A09
:100420002DD0029A012A039A15DC1205C01A9141B7
:1004300001263605001C7141D20F059ED20700939C
:10044000019202962A46234600F082FA07B0F0BDD8
:1004500038463146FAE71605224A0F46B218C01A46
:10046000B74101210905001C4F4100187F41114689
:1004700018187941E20F10436D19644113E0E20747
:100480006D0815436408C2071443039A0126120538
:10049000C01A91413605001C7141CE074008304317
:1004A0004908C01851412A46234600F044FACDE7D6
:1004B000FFE7049801224000C117121A00238B4164
:1004C00004983146C417381AA141EEE730B401242C
:1004D000E407634030BC55E730B40124E4076140D1
:1004E00030BC4FE70000E0FFF0B50C465C4085B043
:1004F000E40FE40703944C00002664085900944676
:10050000490802460296224321D062460A431ED081
:100510006200570D4A000E032303550D01240246C5
:100520002C492405781B1B0B360B4018234326430C
:10053000614600901C46501AB44103D30098401CF9
:10054000009002E0921800985B41002803DA002036
:10055000014605B0F0BD0020012109050746864689
:1005600011E064461D46141BB54106D36546521B77
:10057000B341744607430C43A646CD0740084908DB
:10058000284392185B4105460D43EAD110461843B3
:1005900013D06046194650407140084306D060466B
:1005A000101AB34106D20122002306E000220123E3
:1005B000DB0702E00122D243531000987446010584
:1005C000381C6141029C039D0019694100F0B3F998
:1005D000BFE70000FD030000C217C10F504010B577
:1005E0004018CA079623002100F06CF910BD0000E6
:1005F0000EB5C217C10F5040CA0740180021054B65
:100600000293019200910A460B4600F0A1F903B053
:1006100000BD000033040000C20F4100400201236E
:10062000400ADB05D207090EC0187F2901DA002035
:100630007047962903DC9623591AC84001E0963981
:100640008840002AF4D040427047C20FD2074000D1
:1006500040080BD0C10D0723DB01C9184002090572
:10066000400A1143C2084007114370470020014669
:100670007047CB0FDB07490010B5490802460A4313
:1006800007D00A0D07240903E401090B121B002AF5
:1006900001DC002010BDC900440F0C43C100E0186C
:1006A000D205801800F006F910BD70B50446002987
:1006B00003D000202022012310E0002801D00020D8
:1006C000C043C046C0460DE02546D5408D4205D307
:1006D0000D469540641B1D46954040191546521E17
:1006E000002DF1DC214670BDF0B51FB40646002098
:1006F00082B005464024019100901BE001992246FA
:100700000F46304600F02AFA049A059B801A994158
:1007100010D310461946224600F016F8361A8F41BB
:100720000197224601200021009F00F00DF83818A3
:100730004D4100902046641E0028DFDC019B00989C
:100740002946324607B0F0BD10B5202A04DB014629
:10075000203A9140002010BD914020239C1A03466E
:10076000E3401943904010BD10B5202A06DBCB179B
:100770000846203A1041C1170B4306E00B461341CF
:10078000D0402024A21A91400843194610BD000011
:100790000FB400B589B00A460DA9009100230C9949
:1007A000002ACB60234B0693234B079301D00423ED
:1007B00000E00023214A0292214A08920193024656
:1007C0006B46002000F079FA09B008BC04B0184765
:1007D000F0B585B007460020C04301901E460020BA
:1007E00015460C460091029104903B466A463146FC
:1007F00004A8FFF7CDFF049902466018002D05D02C
:10080000002901D0034600E023462B6000290ED0CA
:10081000002A02DD0099814209D0001B019000945A
:100820003B466A463146029404A8FFF7B1FF05B083
:10083000F0BD0000110F0000310F0000FFFFFF7F2F
:10084000890B0000F7B5009C0F4600262578641C34
:10085000002D05D000F094F90068405DC007F5D187
:100860002B2D02D02D2D18D0641E39462046029A19
:1008700000F070FB002F04D03968A14201D100992B
:1008800039607105022400290BDA4042002803DD9B
:1008900001F076FE0460A007FEBD01208002064341
:1008A000E3E70028F8DA01F06BFE04600048FEBDC3
:1008B000FFFFFF7F002904DA401C490001D14008F6
:1008C0004000704770B40024050C05D110240004CA
:1008D00002D1002921D01124050E01D100020834D3
:1008E000050F01D10001241D850F01D18000A41C3A
:1008F000002801DB4000641C002908D020252E1BA5
:100900000D46F540A14000D00121294308430106CE
:100910001B1B000ADB1D02D5002070BC7047DB05E5
:10092000181880180029F8DA401C4900F5D170BC6D
:1009300040084000704710B5002B08DA0024401C26
:10094000614192185B411A4301D14008400010BD3B
:10095000F0B51FB482B005460C0003D0084601F084
:10096000F7FD02E001F0F4FD203002460090214640
:100970002846FFF7E9FE049B059A04460F461843F4
:100980001143084314D0184610431BD0009840214F
:100990000A1A1846059900F0E1F805460E46009A35
:1009A00005990498FFF7D0FE084305D0012004E024
:1009B0002046394607B0F0BD0020C11705430E435D
:1009C0002C43374300990E986305401A7905E40AD1
:1009D00000220C43FD0A0A3002D500200146E9E757
:1009E0000105101969410C9C0D9D00196941FFF723
:1009F000A2FFDFE7F0B51FB488B00B990998002477
:100A000048400999C00F490049080991C0070B994E
:100A10000090490049080B9109990898A646084397
:100A20001CD00B990A98084318D00998012440005B
:100A3000420D4800410D099824050003000B204396
:100A400009900B980003000B20430B9050181C4991
:100A50004018002201901446104605E0002001468F
:100A60000DB0F0BD032801DA034600E003239C46E5
:100A7000C11A0AAE0AE05F0008ADED5B4F00F75BFC
:100A80007D430027AA187C41491C5B1E6145F2DDAD
:100A9000410004AB5A522104120C0A43240C401C9E
:100AA0000828DFDB019802900099704601910090C0
:100AB000059B049A07990698FFF74AFFD0E70000C4
:100AC0000DFCFFFF4A0009030123090B1B05194315
:100AD0000A4B10B5520D9A4202DA0020014610BDB1
:100AE000064B34339A4203DC9A1A00F037F810BDF3
:100AF000034BD218FFF728FE10BD0000FF030000D3
:100B0000CDFBFFFF10B5002904DB0124E4074042C0
:100B10008C412146002B04DB1C460123DB0752429B
:100B2000A341994200D1904210BD00001CB5094874
:100B300000900948019005460126009C05E0E36805
:100B400007CC33430C3C98471034AC42F7D3FFF743
:100B50000DFB0000AC2F0000CC2F000010B5202AA8
:100B600004DB0846203AD040002110BD0B46D3409C
:100B7000D0402024A21A91400843194610BD00001D
:100B800000487047342F000010B50446FFF7F8FF07
:100B90000068005DC007C00F10BD0000FFB50878F9
:100BA00089B01546FF2805D0491C2D2804D0002205
:100BB000002407E000240BE00122F9E70A235C434C
:100BC0000419491C0878FF28F8D1002A00D0644293
:100BD000002004902A7801462D2A01D02B2A0FD11B
:100BE0006D1C2D2A02D00022049209E00122FBE7AD
:100BF00000260A2233466D1C00F0FFF938187141B7
:100C00002F78FF2FF4D10C9AA218069202460A43BD
:100C100004D0FF23069A9133DA4205DA00210998BD
:100C20000A4606C00DB0F0BD0024B74AB54D2646B1
:100C3000079200F009FA029006980391002801DA61
:100C4000474200E0074639050020AF4A001C5141E9
:100C50000191009012E0F80707D022462B4630465B
:100C60000799FFF7C7FE0646079122462B46104616
:100C70001946FFF7BFFE04460D467F10002FEAD14C
:100C80000698019B0028009A0399029806DAFFF75C
:100C90002BFC3246079BFFF727FC05E0FFF7AAFE77
:100CA0003246079BFFF7A6FE049A002A02D00122D3
:100CB000D2075140099A03C2B4E7FFB591B00020B2
:100CC00009900025ED432E209E685C681F46019028
:100CD000B9696D1C129888470090396A88470028C6
:100CE000F6D10098401C0AD00D20C0018443002E8C
:100CF00012DD00982B2809D02D280DD103E000200B
:100D0000C04315B0F0BD012080020443B9696D1CD9
:100D100012988847761E009003A9600501D52D2002
:100D200000E02B206A461073491C0CA80F9102901A
:100D30000AE0B9696D1C12988847009001204002B2
:100D400004431398761E0560002E02DD00983028BB
:100D5000EFD001990098884245D18020044308E0F3
:100D60000998401E09900120400204431399681C11
:100D70000860B9696D1C761E12988847009030286B
:100D8000EED030E00199884205D1200603D48020BE
:100D90000443761E1DE0009801F0CCFC002825D00D
:100DA000012149020C43009807AA0F9903323038F9
:100DB000761E914208D208700F98401C0F902006B2
:100DC00007D50998401E03E0200602D40998401C6C
:100DD0000990A00502D51399681C0860B9696D1CBB
:100DE000129888470090002ECCDC59E0002E57DD89
:100DF0000098652801D0452852D1A00550D5032080
:100E000000028443B9696D1C761E129888470090D1
:100E1000002E0CDD2B2804D02D2808D1FF20013016
:100E20000443B9696D1C12988847761E0090E0054E
:100E300001D52D2100E02B21029801700298401C61
:100E40000290019025E00120400204430EA902987F
:100E50000131761E88420ED2009802993038000681
:100E6000000E087003D10299019881420AD90298B4
:100E7000401C029006E0E00501D5244801E023482B
:100E800040420990B9696D1C1298884700901398E8
:100E90000560002E04DD009801F04CFC0028D2D142
:100EA000F969129888470F99FF200870029903AAE0
:100EB000087000200A900B900CA90AA8099BFFF764
:100EC0006DFEA00502D40120C0431AE7242004428D
:100ED00009D0E00713D138680B9A0A99031D3B60CB
:100EE000006806C00BE00B990A98FFF7C2FB0146A9
:100EF000E00704D13868021D3A60006801602846A6
:100F0000FFE60000000014400000F03FF1D8FFFFB2
:100F10004268002A08D001680B78491C002B03D0D6
:100F2000521E06C0184670470121C160881E7047D6
:100F30004268002A0BD0C3680168002B07D1836880
:100F40008B4204D0491E521C06C00020704700206E
:100F5000C0437047F7B582B0029C00272078641C1C
:100F600015460197302802D0002D15D015E02078C5
:100F70000127641C782804D0582802D0002D09D0FD
:100F80000BE0002D01D0102D07D10027102520786F
:100F9000641C02E0082500E00A250026009610E007
:100FA0000099012769430818020C294680B2714351
:100FB00000908E183804864201D3012001902078D9
:100FC000641C294600F031F80028E9DA039800286B
:100FD00005D0002F01D0641E00E0029C046001983F
:100FE000002806D001F0CCFA02210160C81E05B02D
:100FF000F0BD009930040843F9E730B5434351434D
:101000005C18010C130C0D465D432C1980B292B292
:101010000546554351430A0C09044D196241584392
:10102000010C00044019514130BD3A2800D230383B
:10103000202302469A43412A01D31046373888427A
:1010400001D30020C04370470EB5054A029200222A
:10105000009213460192FFF77BFC03B000BD000035
:101060003304000070B58D180478401CA207920F5D
:1010700001D10278401C231106D10378401C03E003
:1010800006780E70401C491C521EF9D1002B15D059
:1010900002780C268A1A3440401C0C2C03D0A40180
:1010A000121B9B1C08E004782402121B401CF8E76A
:1010B00014780C70491C521C5B1EF9D5A942D3D37D
:1010C000002070BDF0B58EB0C0005C4BC4180F237B
:1010D00018020790180308901804099018050A9040
:1010E00018060B9018070C900E060D9452D0012094
:1010F000084045422F461F408807059000D5F0372D
:101100004807049001D5079807430807039001D5C5
:1011100008980743C806029001D509980743880636
:10112000019001D50A9807434806009003D5304640
:101130000B9E374306460696002E01D50C9E37437C
:101140000D9C2468BC4317010598C6173E40154006
:10115000354316020498C71737402F4315030398E9
:10116000C6172E403E4315040298C7172F40374339
:1011700015050198C6172E403E4315060098C01766
:10118000284030431507069EF6172E400643264397
:101190000D9C26600E04300E41D0C805C7173B4099
:1011A0008805069000D5F0334805059001D50798CD
:1011B00003430805079001D508980343C804089025
:1011C0002FD4880431D4490433D4002E01D50C9D8A
:1011D0002B4365689D431301069CE4171C40174090
:1011E00027431302059CE4171C403C431303079F4D
:1011F000FF171F4027431304089CE4171C403C437F
:101200001305C017184020431306C917194001439E
:101210001007F21702400A432A430D9842600EB0AD
:10122000F0BD099803438804CDD50A9D2B4349049A
:10123000CBD50B9D2B43002EC9D4CAE720200240FA
:1012400010B50D4C204600F031F8002812D00B48A4
:101250000168491C01600A480168491C0160094A8B
:10126000914204D10021016007480121017020460C
:1012700000F00CF810BDC04600600740E8030020F5
:1012800024060020983A0000F8030020416801225B
:1012900091434160BFF34F8F70474A1E91418900CF
:1012A000026804239A435118016070474168012085
:1012B000084070474A1E9141026801239A43511821
:1012C00001607047C160704781607047B0B54109E7
:1012D0008900224BC9180A6AD9691C46183C24683F
:1012E00007240C405D68194614390968890501D442
:1012F00000210DE01A49002D0AD41D686D012D0F43
:1013000001D0694300E017491D686D02AD0FE94047
:10131000641E062C0AD8C0467C4424796400A74485
:101320000C03030505070A000D4906E0002104E04F
:101330000121C90301E07D2109021F240440032586
:10134000A5402A40E2402E2800D1921C986805282A
:1013500000D30520C140D1400846B0BD18800840E8
:1013600000127A000020A10770B50C4C2568002BF4
:1013700001D0054300E08543A668E0682560002BA6
:1013800001D00E4300E08E43A660002B02D0104334
:10139000E06070BD9043E06070BDC04624800840AE
:1013A000F0B581B00E4621204102002501242846D7
:1013B0002A462346FFF7D8FF1021062728463A463B
:1013C000FFF780FE202128463A46FFF77BFE084FB4
:1013D0003846314600F044FA38462946224600F0A5
:1013E00086FA38462146224600F081FA01B0F0BD67
:1013F000000004404A1E9141026801239A4351189B
:1014000001607047C068411A484248417047C16056
:1014100070474A1E9141C900026808239A43511837
:1014200001607047016802220A43026070470000B1
:10143000F0B581B00D4604460068852188432978BF
:10144000014368780843A978014321602889A06096
:1014500000261D48844203D01C48844204D1022641
:101460003046FFF733FF064603208103206808401B
:101470000121CA03904206D08903884205D0002882
:1014800005D1062004E0092002E0082000E0002049
:10149000009009207043696814274F433946FFF7CD
:1014A00004F9E978009A5518401BC1178843206158
:1014B0000B2070433946FFF7F8F8401BC1178843EB
:1014C000606101B0F0BDC04600800440009004405F
:1014D00081B000220092009000984018009000987F
:1014E000006801B070478069C0B270478161704781
:1014F00003689B0708D503689B0705D503689B070E
:1015000002D503689B07F3D4002A02D0012292027D
:101510001143C161704780B584B0694600200881DD
:101520000390012212020192E12252020092FFF77F
:1015300037FF04B080BD0000001F414241418800D8
:1015400012490A6804239A43101808607047C0467D
:10155000012805D0002809D10C480021816070477E
:101560000A48016801220A4302607047074801687F
:101570000122914301607047411E884140000349A8
:101580000A6802239A4310180860704710E000E0D0
:10159000014908607047C04614E000E0F0B586B02D
:1015A0006948102103910160684801210160684A7F
:1015B000D36A402402942343D362664B5C68272C91
:1015C00008D05C68272C05D05C68272C02D05C68AA
:1015D000272CF3D14C021D68AD050FD41C601D688B
:1015E00025420BD11C601D68254207D11C601D6877
:1015F000254203D11C601D682542EFD01D6825429D
:101600000ED000251D601E68264209D01D601E6890
:10161000264205D01D601E68264201D01D60EDE700
:1016200000230493036003208302156A9D4315621F
:10163000CB0215681D43156053681B0708D4536817
:101640001B0705D453681B0702D453681B07F3D547
:101650001368019003430425AB431360136B072603
:101660003340032B0BD0136B3340032B07D0136B8A
:101670003340032B03D0136B3340032BEED1364F93
:101680003B680B430620009083433B600498D06185
:101690001368A34313600D02131F186828431860D2
:1016A000059188021168014311605068400708D411
:1016B0005068400705D45068400702D4506840077E
:1016C000F3D5D06A02998843D0621868A84318609D
:1016D0000198000650611068204310605068800730
:1016E00008D45068800705D45068800702D4506839
:1016F0008007F3D538680221014305208143396012
:101700000498D061106805990843009988431060D7
:10171000106B304001280BD0106B3040012807D0EF
:10172000106B3040012803D0106B30400128EFD1FE
:101730003868039908433860059800033968014305
:10174000396006B0F0BDC0460C81084000830840F7
:101750000480084004A1064000020840B0B50125FD
:10176000AC072021204600F075F8002826D020463E
:1017700000F0B8F8124C2178124A5054C0B20A282E
:101780001AD1104810A10622FEF71DFD002806D030
:101790000C480FA10A22FEF716FD002805D10F48BC
:1017A0000849FEF71DFD0E48056000202070054821
:1017B0008021FEF7E8FCB0BD481C2070B0BDC046DB
:1017C000B8020020BC0200207B2266656564000030
:1017D0002B43475053494E464F3A0000F90300202F
:1017E0007C04002010B5144C2021204600F032F873
:1017F000002820D0204600F075F8104C2178104ABF
:101800005054C0B20A2814D10D480EA10522FEF78B
:10181000DAFC002806D10D480949FEF7E1FC0C4826
:10182000012101600020207005488021FEF7ABFCFB
:1018300010BD481C207010BD000004403C03002077
:10184000400300202B5243563D000000800400203E
:101850000005002000690840411E884170470000D3
:10186000B0B50D460446406814490140E888084375
:10187000A988014328890843E96801436160002081
:101880000F498C4208DC012189078C420CD00F499A
:101890008C420ED11C200AE00A498C4206D00A492B
:1018A0008C4206D11A2002E0182000E01E20FFF72B
:1018B0000DFD2968FEF7F9FE6062B0BDFCE0FFFF98
:1018C000FFFF0340001004400000044000100040EF
:1018D000002A03D0C2680A43C2607047C2688A43C4
:1018E000C2607047006880B2704701607047102383
:1018F0008B40002A03D0416819434160704741681A
:1019000099434160704780B500F0BEF980BD00008A
:10191000F0B583B00C46009001AF0821384600F0C6
:101920002BF8F878B97809020818FEF761FE00254F
:101930000F4E2A463346FEF7D7FDFEF79AFE20608B
:1019400004203956C8B200027A798018002902D5DD
:10195000084908404042FEF74BFE2A463346FEF750
:10196000C3FDFEF786FE0099086003B0F0BDC046D7
:1019700000002440FF7F0000F0B585B00491039083
:10198000D64C5C2100222046FFF7B2FD4A4D20468E
:101990002946FFF737FD0028F9D019277801019073
:1019A00000F0DCF82046FFF73DFD0125EE040C2198
:1019B0002046FFF78DFD3042F9D169022046FFF73E
:1019C00026FD5C2100222046FFF792FD3A4D20467D
:1019D0002946FFF717FD0028F9D01D204504291DD1
:1019E0002046FFF70FFD0028F9D020462946FFF7D3
:1019F00009FD0028F9D0029603212046FFF776FD65
:101A000020462946FFF7FEFC0028F9D00026204694
:101A10003146FFF76BFD20462946FFF7F3FC00280F
:101A2000F9D004212046FFF761FD2046FFF7FAFCBC
:101A3000029D0C212046FFF74BFD2842F9D10121E0
:101A40002046FFF7D7FC019AE0325C212046FFF7E1
:101A50004FFD194D20462946FFF7D4FC0028F9D048
:101A6000E91C2046FFF7CEFC0028F9D00498002896
:101A700016D00498451EB54203D100212046FFF739
:101A8000B9FC39042046FFF7BDFC0028F9D02046F8
:101A9000FFF729FD03998855761C04988642EAD100
:101AA0002046FFF7BFFC029D0C212046FFF710FDEA
:101AB0002842F9D105B0F0BD0100180070B501242D
:101AC00022040026304631462346FFF74DFCFF2016
:101AD000000210490A688243E0031018086060049D
:101AE0000D4908600D4D28463146FFF7EDFB7D207E
:101AF000C10060480068FEF7D8FD01462846FFF7A0
:101B0000E1FB28462146FFF7D5FB28462146FFF793
:101B1000C4FB70BD10E400E000E100E0006007409D
:101B200010B5002807D004467D20C00000F016F84C
:101B3000641E2004F8D110BD70B500280CD00446F6
:101B40007D20C5002E46284600F008F8761E300499
:101B5000F9D1641E2004F3D170BD0000F0B581B04E
:101B600005460420C4432046FFF7E6FC41480068D0
:101B70004149FEF79AFDFFF70BFD00263046FFF7BF
:101B8000FBFC3046FFF7E4FC01273846FFF7E0FC9A
:101B9000002D30D003232A461A4038043749042D3B
:101BA00031D2002A27D00B68034208D10B680342C8
:101BB00005D10B68034202D10B680342F3D0012A1E
:101BC00019D00B68034208D10B68034205D10B689A
:101BD000034202D10B680342F3D0022A0BD00A68F9
:101BE000024208D10A68024205D10A68024202D1C3
:101BF0000A680242F3D0E01CFFF7AAFC0020FFF7BE
:101C0000A7FC01B0F0BD9D4302E0361DAE42C8D036
:101C10000B68034208D10B68034205D10B680342ED
:101C200002D10B680342F3D00B68034208D10B6862
:101C3000034205D10B68034202D10B680342F3D083
:101C40000B68034208D10B68034205D10B680342BD
:101C500002D10B680342F3D00B680342D5D10B6865
:101C60000342D2D10B680342CFD10B680342F3D0B9
:101C7000CBE7C046A801002000127A0010E000E087
:101C800080B500F001F880BD70B584B00124200457
:101C9000104900252A462346FFF766FB07262846FB
:101CA00021463246FFF70EFA022128463246FFF758
:101CB00009FA01A90A200881074802900195074DF9
:101CC0002846FFF7B5FB28462146FFF7A2FB04B0E4
:101CD00070BDC04602400000102700000090044084
:101CE00088B000200190039038480290FFF713FC61
:101CF000FFF7E4FE00F07EF800F056F9FFF703FE70
:101D0000FFF7BEFF324E384D324F384C1DE00026F3
:101D10000496079604A807A9FFF7FAFD0498079907
:101D20003C462F462D4D03C5083D00F041F928469D
:101D30003D4627462D4C00F01DFB00F0DBF9264800
:101D40000670234E0120FFF7EBFE00F003FA307817
:101D500000280AD0C019401E007802A900F0B8F887
:101D60000120FFF7E9FE019830701B480078022837
:101D7000CDD00128E6D10198069019480590194860
:101D800004902878385C04A900F0A2F8266820683E
:101D9000801B174988420DDC00F030F84A48006883
:101DA0000028F4D0474800F08FFA00F0CFF8002068
:101DB000454908602878012804D1022006490870A6
:101DC000019800E0401C024E2870BBE74665656440
:101DD000F0030020AC010020F8030020B001002037
:101DE0006F6E736552657370C0030020E8030020B6
:101DF0009F0F000080B500F011FB80BDF0B581B0F1
:101E00002D4E3068012854D12C482DA1FEF7F2F94F
:101E10000024B34D20462946FEF7ECF901F033F8D3
:101E2000FEF727FC274F386020462946FEF7E2F9E7
:101E3000002838D00020AA49FEF7DCF9054601F059
:101E400022F8FEF716FC7860002D2CD00020A44963
:101E5000FEF7D0F9054601F016F8FEF70AFCB86067
:101E6000002D20D000209E49FEF7C4F9054601F060
:101E70000AF8FEF7FEFBF860002D14D00020984908
:101E8000FEF7B8F9054600F0FEFFFEF7F2FB3861F9
:101E9000002D08D000209249FEF7ACF900F0F3FFC6
:101EA000FEF7E7FB786108480121016007480160FF
:101EB000346001B0F0BDC046000500208004002061
:101EC0003D000000CC030020E4030020EC030020D0
:101ED000F0B583B00F460290114D8026284631465A
:101EE000FEF751F90F4803680FA128463A4600F063
:101EF0001BFB2846FEF752F904460D4F3846314683
:101F0000FEF741F900950BA13846029A234600F0EE
:101F10000BFB0D48394600F0E9FA03B0F0BDC046AE
:101F200024050020F403002025732C2575000000F3
:101F3000A405002041542B53454E443D25642C25D7
:101F4000752C25730D0A000000000440B0B5012077
:101F50008407C449204600F0C9FA03252846FFF744
:101F6000DFFD1049204600F0C1FA2846FFF7D8FDF2
:101F7000CB49204600F0BAFA2846FFF7D1FDCF49F9
:101F8000204600F0B3FA2846FFF7CAFD7049204604
:101F900000F0ACFA2846FFF7C3FDCA49204600F01E
:101FA000A5FAB0BD6A00002080B500F037FA80BD08
:101FB000F0B583B0012084074749204600F096FA27
:101FC0000320FFF7ADFD4549204600F08FFA7D2044
:101FD0008000FFF7A5FDA7480068012879D1A64831
:101FE000A649FEF707F90027A54E38463146FEF709
:101FF00001F901463B4D2846FEF7F2F838463146D6
:10200000FEF7F8F8384602973146FEF7F3F8014636
:10201000354E3046FEF7E4F8284600F034FF05461A
:102020000C46304600F02FFF019000919148076068
:1020300028462146FEF71DFB05462C49FEF764F9AC
:10204000FEF7EAFA0646642738467043FEF7C4FAFC
:1020500001462846FEF750F904463046FEF7C8FA16
:1020600005460E462046FEF7F0FA214B029AFEF78F
:102070003BFA2A463346FEF785F9FEF7FAFAD649C7
:10208000086001980099FEF7F4FA05461749FEF733
:102090003BF9FEF7C1FA044647433846FEF79CFA7F
:1020A00001462846FEF728F907462046FEF7A0FA23
:1020B00005460E463846FEF7C8FA029A0C4BFEF764
:1020C00013FA2A463346FEF75DF9FEF7D2FAC34902
:1020D000086003B0F0BDC0460800002025000020C5
:1020E000382F000004050020140500200000C8421D
:1020F00000004E40B0B5012084075A49204600F048
:10210000F5F903252846FFF70BFD1049204600F09E
:10211000EDF92846FFF704FD6149204600F0E6F995
:102120002846FFF7FDFCBB49204600F0DFF92846B2
:10213000FFF7F6FCAA49204600F0D8F92846FFF739
:10214000EFFC6049204600F0D1F9B0BD1E0100202F
:1021500038020020F0B581B00120840741492046B3
:1021600000F0C4F903252846FFF7DAFC3E49204673
:1021700000F0BCF92846FFF7D3FC3C49204600F0AC
:10218000B5F96420FFF7CCFC3949204600F0AEF9E0
:102190003220FFF7C5FC374D286801285FD136484B
:1021A0003649FEF727F8002635493046FEF722F873
:1021B00034A1FDF7FAFF002850D1009600262F4DDC
:1021C00030462946FEF716F830A13046FEF712F8E1
:1021D0002F4F30463946FEF70DF8FEF72FF82D4900
:1021E000087030462946FEF705F830463946FEF7B6
:1021F00001F8FEF723F8284908602849204600F036
:1022000075F903263046FFF78BFC2549204600F080
:102210006DF93046FFF784FC22A07E490A4688C843
:1022200088C2A8C8A8C2134D038813808078907014
:10223000204600F05BF93046FFF772FC204920464B
:1022400000F054F93046009EFFF76AFC1D49204615
:1022500000F04CF97D208000FFF762FC2E6001B099
:10226000F0BDC04698010020E100002033000020AE
:10227000570000207C040020F9030020A02F00005C
:10228000382F0000747275650000000064000000C3
:102290009E2F0000F0030020F403002055010020D1
:1022A000A500002041542B48545450444154413D12
:1022B00031322C31303030300D0A0000B8010020AE
:1022C0001600002045000020F0B593B004460068D9
:1022D000FEF7A2F9244D2978814207D110A823499D
:1022E000012200F021F92068FEF796F96978814211
:1022F00004D110A81D49022200F016F96068FEF70B
:10230000A4F90F900E91A068FEF79FF90D900C9123
:10231000E068FEF79AF906460B912069FEF795F9F9
:1023200007460D466069FEF790F9089009910F98ED
:1023300000900E9801900D9802900C9803900496CE
:102340000B98059006970795254C094910AA204639
:1023500000F0EAF82046FDF721FF02462D482E49FD
:1023600000F0E2F813B0F0BDAC010020A22F000095
:10237000512F0000F0B589B006464068FEF765F9B8
:102380000890079114480068FEF75FF90746069128
:1023900012480068FEF759F905460C463068FEF70A
:1023A00054F902460B46089800900798019002974E
:1023B0000698039004950594094C0AA1204600F064
:1023C000B3F82046FDF7EAFE02461248124900F033
:1023D000ABF809B0F0BDC046C4030020C80300201C
:1023E0003802002074656D70657261747572653DA8
:1023F000252E31662668756D69646974793D252ED0
:102400003166264C61743D2566264C6F6E3D25660F
:10241000720A0000B80100203A2F0000F0B589B020
:10242000012420044321090200252A462346FEF701
:102430009BFF1421062628463246FEF743FE28213C
:1024400028463246FEF73EFE089520020090069090
:10245000E120470205970795A60705A93046FFF733
:10246000FFF91E4908681E4A10400860E0051D4932
:102470000860304621462246FFF72AFA30462946B0
:102480002246FFF734FA304621462246FFF72FFA5C
:1024900004950098029001970395134E01A93046C8
:1024A000FFF7DEF90D4A506840210143BF20814308
:1024B00051600B48401C0B490860304621462246BB
:1024C000FFF706FA304629462246FFF710FA304653
:1024D00021462246FFF70BFA09B0F0BD14E400E0F4
:1024E000FFFFFF0000E100E00000044070B505467A
:1024F0000878002817D00C460026C1B22846FFF7FE
:10250000F4F980212846FFF7A5F90028F9D0012029
:1025100001022846FFF79EF90028F8D0761CF0B299
:10252000205C0028E9D170BD0FB410B504A9074B99
:1025300002AA039800F006F9044602A9002000F060
:102540009DFC204610BC08BC04B018477D2E00003E
:102550002021020C01D010211046020A01D01046A1
:102560000839020901D01046091F820801D010461F
:10257000891E420801D0881E7047081A7047000063
:1025800000487047040000200148006870470000C0
:102590000400002002E008C8121F08C1002AFAD176
:1025A00070477047002001E001C1121F002AFBD1D3
:1025B00070470000014908607047000004000020D7
:1025C000F0B51FB486B00998089A030D00210243A4
:1025D00014D05148514A1818504305141198012835
:1025E00010981AD0281A401C00264D4F4D490096CD
:1025F00001910490002812DA444211E0119801245C
:1026000049A3012801D11098C1430698119A84600A
:102610000360C26041600BB0F0BD4042E4E7044695
:10262000210500203F4A001C51410391029012E015
:10263000E00707D032463B4601990098FEF7DAF9E9
:102640000191009032463B4610461946FEF7D2F9FA
:1026500006460F466410002CEAD10498039B00281C
:10266000029A0999089806DAFEF7C4F9019B009AC4
:10267000FEF7C0F905E0FDF737FF019B009AFDF773
:1026800033FF04460E460022284BFEF73BFA03D8E0
:102690000020C043014607E00022254B204631467A
:1026A000FDF770FEFEF70EFA102409E0002C0ADB9D
:1026B0000A220023FEF718F8079B30321A55641ED1
:1026C00002460A43F2D11122641C079B121B1C19FB
:1026D000119B012B03D0012308430ED10AE00843CC
:1026E00004D0112010900020119077E71098151A4F
:1026F0006D1E0BE01098824202DD00236D1C03E08A
:10270000824201DA00236D1E002BEED0069811994B
:102710008260C16030C07EE701FCFFFF104D000009
:10272000000014400000F03F300000000000F043C3
:102730000000E03F30380A2801D201207047002015
:1027400070470000FFB597B00646002518E225281F
:1027500077D100242746FD49049400E00443761C09
:1027600032780120203A90400842F7D130782A2868
:102770000ED00222307801463039092916D8049942
:102780000A235943303940181443761C0490F1E76A
:10279000189802C804911890002904DA0120400317
:1027A00004434842049002200443761C30782E28CB
:1027B00014D1042004437078761C2A2809D1189873
:1027C000761C80C8189009E00A214F43303FC71992
:1027D000761C3078014630390929F5D930786C28D3
:1027E00010D006DC4C281AD068280ED06A2817D1E1
:1027F00004E0742813D07A2812D110E0012040059B
:1028000004430CE00121090501E0032109050C4303
:102810007178814203D1012000052418761C761CB2
:102820003078119066280BD013DC58287DD009DC55
:1028300000287BD04528F6D04628F4D047281AD166
:10284000A5E118E0632835D0642870D0652812D13E
:102850009DE170286CD008DC6728F1D069287BD016
:102860006E280DD06F2806D1BAE073282ED07528B7
:1028700071D0782859D01A9A199990476D1C7EE129
:102880006002400F022809D003280DD004281898B0
:1028900001680DD00D60001D189070E11898EA17BE
:1028A00001680D604A60F6E7189801680D80F2E74C
:1028B0000D70F0E718986A4601781172001D1890A3
:1028C0000020507202A80090012005E0189802C86C
:1028D000189000200091C04361070DD5002101E050
:1028E0000199491C0191B94212DA8142F8DB009A40
:1028F000515C0029F4D10BE0002101E00199491C51
:1029000001918142FADB019A0099895C0029F5D195
:10291000019904981A9B471A21463846199A00F0E3
:1029200097FA0199401945180BE04FE02CE113E0AC
:102930004EE0009800990078491C00911A9A199964
:1029400090470198401E0190401CF2D12146384624
:102950001A9B199A10E137E00A200021009001919A
:102960006002410F022907D0189A01CA1892C217B3
:102970009446032908D00AE01898C01DC108C90070
:1029800005C91891944607E000B2C217944604297D
:1029900002D140B2C1178C4600226146944506DA46
:1029A0000A460021404291418C462D2102E021053A
:1029B00004D52B216A461173012103E0E10701D000
:1029C0002021F7E7029155E00A200AE0102008E0F4
:1029D000102000900021042004430191082703E007
:1029E00008200021019100906002410F022907D0C8
:1029F000189A01CA189200229446032908D008E0C8
:102A00001898C01DC108C90005C91891944603E073
:102A100080B2042900D1C0B200210291210729D53A
:102A20001199702906D0009A1021019B4A401A433F
:102A300005D00EE040216A461173012108E061468D
:102A4000014306D030216A46117311995173022156
:102A50000291009A0821019B4A401A430AD161461B
:102A6000014301D1610705D530216A461173012167
:102A70007F1E02911199582904D035A10E910DA9FC
:102A80000D910DE037A1F9E76146019B009AFDF732
:102A90002BFE0E9B8C469B5C0D9A521E0D92137062
:102AA00061460143F0D10D9805A9081A2030019024
:102AB000600703D501200004844300E0012701984A
:102AC000874201DD381A00E000200199009041188A
:102AD000029809180498401A0490E00306D421468D
:102AE0001A9B199A049800F0B3F94519002706E0DB
:102AF00003A81A9AC05D199990476D1C7F1C029813
:102B00008742F5DBE0030CD521461A9B199A0498FD
:102B100000F09EF9451904E01A9A3020199990475F
:102B20006D1C0099481E00900029F5DC08E00D9806
:102B30000D990078491C0D911A9A199990476D1CAE
:102B40000199481E01900029F1DC63E10928010088
:102B50003031323334353637383961626364656613
:102B600000000000303132333435363738394142D5
:102B7000434445460000000000F05AF94519761C10
:102B80003078002800D0E2E528461BB0F0BD600791
:102B900000D406271898C01DC108C90048680A68F3
:102BA0000831C30FDB071891190001D09CA108E080
:102BB000210501D59BA104E0E10701D09AA100E025
:102BC0009AA1430011985B08109165280CD006DC8F
:102BD000452809D046281DD0472841D141E0662824
:102BE00018D067283CD13CE00021112F01DB1120D7
:102BF00000E0781C0191009008A911A8FFF7E0FC03
:102C0000139905910021119A15927F1C1298019732
:102C1000009150E00120C00703900120019008A915
:102C2000009711A8FFF7CCFC139A14990592002283
:102C3000119B009212981593059A0192002901D0D8
:102C4000104602E0791C40180190381A01D501980D
:102C500004E04042401E0090781C0190C01B02908E
:102C600043E0012F00DA01270021112F01DD11209F
:102C700000E038460191009008A911A8FFF7A0FCD8
:102C800013990591119A00211298159200910197BC
:102C900021070CD40599B94201DB019900E00191AB
:102CA000012904DD159A491E515C302906D0B8422D
:102CB00001DA011D05DA0121029115E00199491E91
:102CC000EDE7002805DC0099411800910199091AE7
:102CD00003E0019A411C914200DD01910099401AE4
:102CE000401C02900120C0070390200706D40299DF
:102CF0000198814202DB0020C04302900020694617
:102D0000C87707AF012103980337C907884224D049
:102D1000022011902B201290039800280CDA4042D8
:102D200003902D20129007E00A210398FDF7BDFCC7
:102D300030317F1E039039701199481E119000297F
:102D4000F2DC03980028EFD1791E129808703078D1
:102D5000202108404530BF1E387006A8C01BC01D8A
:102D6000039010980078002800D0012001994118A4
:102D70000298C0170918039809180498401A401EB1
:102D80000490E00306D421461A9B199A049800F097
:102D90005FF8451910980078002803D01A9A1999FD
:102DA00090476D1CE00324D521461A9B199A04987C
:102DB00000F04EF845191CE00098002807DB009948
:102DC0000598884203DD1598405C199901E019992E
:102DD00030201A9A904700986D1C401C0090029871
:102DE000401E0290002804D11A9A2E20199990476B
:102DF0006D1C0199481E01900029DDDC05E0387842
:102E00001A9A7F1C199990476D1C0399481E0390CC
:102E10000029F4DC21461A9B199A0498ACE60000BC
:102E20002D0000002B00000020000000000000002A
:102E3000F8B5044600251E461746880404D405E06C
:102E400039462020B0476D1C641EF9D52846F8BDD0
:102E5000FFB50446002581B01E46C80301D53027C2
:102E600000E02027880404D505E038460399B047E0
:102E70006D1C641EF9D5284605B0F0BD0A68531CC8
:102E80000B601070704730B583B00446FFF77CFBD1
:102E90000546002000900246019001232146684625
:102EA000FDF796FC2846FFF785FB0199009803B0D3
:102EB00030BD0040404040404040404041414141E1
:102EC0004140404040404040404040404040404001
:102ED0004040400502020202020202020202020215
:102EE0000202022020202020202020202002020296
:102EF000020202029090909090901010101010100A
:102F000010101010101010101010101010100202DD
:102F10000202020288888888888808080808080849
:102F2000080808080808080808080808080802022D
:102F300002024000B32E00002C0041542B48545490
:102F400050444154413D25752C31303030300D0A0C
:102F500000626565626F785F69643D25732646533C
:102F600052313D252E316626465352323D252E31B3
:102F7000662648583731313D252E31662674656DF9
:102F800070657261747572653D252E3166266875AF
:102F90006D69646974793D252E31660D0A00220041
:102FA0003A00626565626F785F257500CC2F00007E
:102FB00000000020B001000064100000BC300000E0
:102FC000B001002078060000A42500005200011086
:102FD0001B41542B434750533D312C310D0A007394
:102FE0007563636573733D747275650F511D40059C
:102FF000494E464F0EF00D48545450414354494FEA
:103000004E3D30128231129009524541443D3230DA
:103010003025E032504152413D2255524C222C2263
:10302000687474703A2F2F3134302E3133302E348F
:103030002E34393A383038392F62656568697665DB
:1030400044617461223B1008434F4E54454E543F37
:1030500000232D6170706C69636174696F6E2F78E5
:103060002D7777772D666F726D2D75726C656E6337
:103070006F6465642277000E2E676574466565642B
:103080005374617475733D000413524356B0011DAF
:10309000741266719010436F6D6D616E645265734A
:1030A000706F6E7365F31405494E49548115A10084
:0C30B00008006CDC02434400000000003B
:04000005000000C136
:00000001FF
