:020000040000FA
:1000000048030020C10000002B0100002D0100006A
:10001000FFFFFFFFFFFFFFFFFFFFFFFFFFFFFFFFF0
:10002000FFFFFFFFFFFFFFFFFFFFFFFF2F010000AC
:10003000FFFFFFFFFFFFFFFF310100003301000062
:1000400035010000350100003501000035010000D8
:1000500035010000350100003501000035010000C8
:10006000AD0A0000FFFFFFFF350100003501000071
:10007000350100003501000035010000FFFFFFFFE2
:10008000FFFFFFFFE50C0000350100003501000017
:100090003501000035010000350100003501000088
:1000A0004D1300003501000035010000350100004E
:1000B0003501000035010000350100003501000068
:1000C0001D4880471D4880471D4800471D4801695D
:1000D000002908D14169002905D18169002902D18F
:1000E000C169002909D01848C1680901090D002912
:1000F0000ED005290CD006290AD0BFF34F8F134824
:100100001349016013491248C860BFF34F8FFEE7DF
:100110000E4801680E48884200D070470E480F49CB
:1001200001600A480E4901607047FEE7FEE7FEE7FE
:10013000FEE7FEE7FEE70000CD0000008D110000A5
:100140006501000000030840800108400000002015
:100150000400FA0500ED00E0008108400100000005
:10016000000000000348854600F0ECFB0048004713
:10017000851A000048030020421C0178401C002919
:10018000FBD1801A704710B5002200E0521C835C3E
:100190008C5CA34201D1002BF8D1D8B2E1B2401A55
:1001A00010BD30B505460020034600E05B1C9342BD
:1001B00005D2EC5CC85C201A01D1002CF6D130BD10
:1001C00070B5104D002800D12868002414E00A46BC
:1001D00002E09E4203D0521C1378002BF9D1DAB210
:1001E000224307D0002B06D0002C04D00021017040
:1001F000401C04E00446401C0678002EE7D128602D
:10020000204670BD0000002070B5064601F070FE6B
:10021000046805460A220021304600F06DF92C6082
:1002200070BD0000F0B50C465C4085B0E40FE407FB
:1002300003944C000026640859009446490802467D
:100240000296224321D062460A431ED06200570D17
:100250004A000E032303550D012402462C492405B0
:10026000781B1B0B360B4018234326436146009036
:100270001C46501AB44103D30098401C009002E081
:10028000921800985B41002803DA0020014605B06F
:10029000F0BD0020012109050746864611E06446AD
:1002A0001D46141BB54106D36546521BB341744627
:1002B00007430C43A646CD07400849082843921837
:1002C0005B4105460D43EAD11046184313D0604602
:1002D000194650407140084306D06046101AB34199
:1002E00006D20122002306E000220123DB0702E000
:1002F0000122D2435310009874460105381C614115
:10030000029C039D0019694100F06FF9BFE70000EE
:10031000FD030000C217C10F504010B54018CA07B6
:100320009623002100F028F910BD00000EB5C21779
:10033000C10F5040CA0740180021054B029301929B
:1003400000910A460B4600F05DF903B000BD0000C5
:1003500033040000C20F410040020123400ADB05C4
:10036000D207090EC0187F2901DA002070479629AC
:1003700003DC9623591AC84001E096398840002AC8
:10038000F4D040427047C20FD207400040080BD063
:10039000C10D0723DB01C91840020905400A1143BA
:1003A000C208400711437047002001467047CB0F39
:1003B000DB07490010B5490802460A4307D00A0D79
:1003C00007240903E401090B121B002A01DC0020A9
:1003D00010BDC900440F0C43C100E018D2058018BD
:1003E00000F0C2F810BD70B50446002903D000200B
:1003F0002022012310E0002801D00020C043C04685
:10040000C0460DE02546D5408D4205D30D469540AA
:10041000641B1D46954040191546521E002DF1DC07
:10042000214670BD70B5002504462E46002911D026
:10043000002C01DA01254442002901DA0126494253
:100440002046FFF7D0FFB54200D04042002D00D03B
:10045000494270BD002C02DA0121C90702E0002CDC
:1004600000DD03490846C046C046214670BD000075
:10047000FFFFFF7FF0B51FB40646002082B005469F
:100480004024019100901BE0019922460F4630461E
:1004900000F020F8049A059B801A994110D3104669
:1004A0001946224600F066FA361A8F410197224615
:1004B00001200021009F00F05DFA38184D410090A6
:1004C0002046641E0028DFDC019B00982946324646
:1004D00007B0F0BD10B5202A04DB0846203AD04012
:1004E000002110BD0B46D340D0402024A21A9140D9
:1004F0000843194610BD0000F7B5009C0F460026C2
:100500002578641C002D05D000F058FA0068405D85
:10051000C007F5D12B2D02D02D2D18D0641E3946E1
:100520002046029A00F04EFA002F04D03968A1420A
:1005300001D1009939607105022400290BDA40428B
:10054000002803DD01F0D4FC0460A007FEBD0120FB
:1005500080020643E3E70028F8DA01F0C9FC0460F2
:100560000048FEBDFFFFFF7F002904DA401C490060
:1005700001D140084000704770B40024050C05D13B
:100580001024000402D1002921D01124050E01D12C
:1005900000020834050F01D10001241D850F01D18F
:1005A0008000A41C002801DB4000641C002908D046
:1005B00020252E1B0D46F540A14000D001212943E6
:1005C000084301061B1B000ADB1D02D5002070BC7E
:1005D0007047DB05181880180029F8DA401C49001C
:1005E000F5D170BC40084000704710B5002B08DA08
:1005F0000024401C614192185B411A4301D140081C
:10060000400010BDF0B51FB482B005460C0003D009
:10061000084601F055FC02E001F052FC2030024691
:1006200000902146284600F0A5F9049B059A04464F
:100630000F4618431143084314D0184610431BD0EB
:10064000009840210A1A18460599FFF743FF05460E
:100650000E46009A0599049800F08CF9084305D0DD
:10066000012004E02046394607B0F0BD0020C11744
:1006700005430E432C43374300990E986305401AF7
:100680007905E40A00220C43FD0A0A3002D5002055
:100690000146E9E70105101969410C9C0D9D0019FF
:1006A0006941FFF7A2FFDFE7F0B50746084658406B
:1006B00087B0C00F049048000E4659004008490812
:1006C000BC1A884105D2384631461E4617460B46AD
:1006D00002465800400810434CD0300D03904005AE
:1006E0005900400D490D0590401A0290402872DAD9
:1006F00018030121000B090508430190049800929A
:10070000002805D0019952420020884100920190B2
:10071000029840210A1A0199009800F02BF9054629
:100720000C466B4607CB00F035F9C0197141039AAE
:100730000E0D0023D71756401A467A40164344D070
:10074000049A002A2DD0029A012A039A15DC120578
:10075000C01A914101263605001C7141D20F059E39
:10076000D2070093019202962A462346FFF74AFFDA
:1007700007B0F0BD38463146FAE71605224A0F4663
:10078000B218C01AB74101210905001C4F410018D9
:100790007F41114618187941E20F10436D196441E9
:1007A00013E0E2076D0815436408C2071443039A77
:1007B00001261205C01A91413605001C7141CE0771
:1007C000400830434908C01851412A462346FFF7E4
:1007D0000CFFCDE7FFE7049801224000C117121A71
:1007E00000238B4104983146C417381AA141EEE723
:1007F00030B40124E407634030BC55E730B4012431
:10080000E407614030BC4FE70000E0FFF0B51FB4E3
:1008100088B00B990998002448400999C00F4900F5
:1008200049080991C0070B990090490049080B91AC
:1008300009990898A64608431CD00B990A980843C2
:1008400018D0099801244000420D4800410D099834
:1008500024050003000B204309900B980003000BB4
:1008600020430B9050181C49401800220190144658
:10087000104605E0002001460DB0F0BD032801DA66
:10088000034600E003239C46C11A0AAE0AE05F005B
:1008900008ADED5B4F00F75B7D430027AA187C4154
:1008A000491C5B1E6145F2DD410004AB5A52210434
:1008B000120C0A43240C401C0828DFDB019802902C
:1008C0000099704601910090059B049A079906983B
:1008D000FFF798FED0E700000DFCFFFF4A00090378
:1008E0000123090B1B0519430A4B10B5520D9A42FF
:1008F00002DA0020014610BD064B34339A4203DC75
:100900009A1AFFF7E7FD10BD034BD21800F032F83A
:1009100010BD0000FF030000CDFBFFFF10B5002954
:1009200004DB0124E40740428C412146002B04DB18
:100930001C460123DB075242A341994200D1904259
:1009400010BD00001CB509480090094801900546FB
:100950000126009C05E0E36807CC33430C3C984734
:100960001034AC42F7D3FFF701FC00005828000018
:100970007828000010B5202A04DB0146203A914077
:10098000002010BD914020239C1A0346E3401943E8
:10099000904010BD10B5202A06DBCB170846203A40
:1009A0001041C1170B4306E00B461341D0402024F1
:1009B000A21A91400843194610BD00000048704734
:1009C00050280000F7B582B0029C00272078641CF4
:1009D00015460197302802D0002D15D015E020785B
:1009E0000127641C782804D0582802D0002D09D093
:1009F0000BE0002D01D0102D07D100271025207805
:100A0000641C02E0082500E00A250026009610E09C
:100A10000099012769430818020C294680B27143E6
:100A200000908E183804864201D30120019020786E
:100A3000641C294600F019F80028E9DA0398002818
:100A400005D0002F01D0641E00E0029C04600198D4
:100A5000002806D001F04CFA02210160C81E05B042
:100A6000F0BD009930040843F9E73A2800D2303845
:100A7000202302469A43412A01D310463738884240
:100A800001D30020C04370478C22815070474A1E1A
:100A90009141C901026880239A435118016070474F
:100AA000842280580840411E8841704710B50B4C85
:100AB00002212046FFF7E8FF04212046FFF7F0FF60
:100AC00000280AD0206B06490840064A1060606B77
:100AD000054B01241C600840506010BD000001401F
:100AE000FF0F0000A8000020A4000020002A04D06E
:100AF000802283580B4383507047802283588B4356
:100B000083507047B0B59307DB0E1F249C40FC2533
:100B1000154040194268A243994011434160B0BD5D
:100B200010B51B04064C1B1912025118FF22D243A8
:100B3000891819430268802313400B43036010BDDA
:100B40000000FFFF1F220B461340036791434167DC
:100B50007047016270474A1E9141426F01239A43D8
:100B60005118416770470000F0B58EB0C0005C4B73
:100B7000C4180F231802079018030890180409904E
:100B800018050A9018060B9018070C900E060D9485
:100B900052D00120084045422F461F40880705904B
:100BA00000D5F0374807049001D507980743080798
:100BB000039001D508980743C806029001D509980B
:100BC00007438806019001D50A980743480600901C
:100BD00003D530460B9E374306460696002E01D5B8
:100BE0000C9E37430D9C2468BC4317010598C6171B
:100BF0003E401540354316020498C71737402F432F
:100C000015030398C6172E403E4315040298C717D4
:100C10002F40374315050198C6172E403E43150651
:100C20000098C017284030431507069EF6172E403F
:100C3000064326430D9C26600E04300E41D0C805A5
:100C4000C7173B408805069000D5F033480505904E
:100C500001D5079803430805079001D50898034379
:100C6000C80408902FD4880431D4490433D4002E0A
:100C700001D50C9D2B4365689D431301069CE41729
:100C80001C40174027431302059CE4171C403C43BB
:100C90001303079FFF171F4027431304089CE41703
:100CA0001C403C431305C017184020431306C917C6
:100CB000194001431007F21702400A432A430D98D6
:100CC00042600EB0F0BD099803438804CDD50A9D5B
:100CD0002B434904CBD50B9D2B43002EC9D4CAE727
:100CE0002020024010B5094C204600F025F80028CD
:100CF0000AD007480168491C064A914200D10021E8
:100D00000160204600F008F810BDC04600600740B2
:100D10004001002060EA00004168012291434160E7
:100D2000BFF34F8F70474A1E914189000268042328
:100D30009A4351180160704741680120084070478C
:100D40004A1E9141026801239A435118016070477D
:100D5000C160704781607047B0B541098900224B7E
:100D6000C9180A6AD9691C46183C246807240C4033
:100D70005D68194614390968890501D400210DE020
:100D80001A49002D0AD41D686D012D0F01D0694349
:100D900000E017491D686D02AD0FE940641E062C86
:100DA0000AD8C0467C4424796400A7440C03030598
:100DB00005070A000D4906E0002104E00121C903EE
:100DC00001E07D2109021F2404400325A5402A409B
:100DD000E2402E2800D1921C9868052800D30520F7
:100DE000C140D1400846B0BD1880084000127A00CA
:100DF0000020A10770B50C4C2568002B01D00543DD
:100E000000E08543A668E0682560002B01D00E4312
:100E100000E08E43A660002B02D01043E06070BD5E
:100E20009043E06070BDC0462480084081400722A6
:100E300082400348036893430B4303607047C046F6
:100E400028800840002A03D002680A4302607047E5
:100E500002688A4302607047F0B500230E251C46E5
:100E600003E0090A10352E2D5AD0CE070ED18E0779
:100E700016D44E071ED40E0726D4CE062ED48E06C8
:100E800035D44E063CD40E06EBD542E02E460E3E3F
:100E90000327B7403B431746B7403C438E07E8D58E
:100EA0002E460C3E0327B7403B431746B7403C4312
:100EB0004E07E0D52E460A3E0327B7403B43174670
:100EC000B7403C430E07D8D52E46083E0327B7400F
:100ED0003B431746B7403C43CE06D0D5AE1F032751
:100EE000B7403B431746B7403C438E06C9D52E1F3B
:100EF0000327B7403B431746B7403C434E06C2D595
:100F0000AE1E0327B7403B431746B7403C430E068F
:100F1000A7D50326AE4033431646AE403443A0E780
:100F2000416999434161416921434161F0BD002A12
:100F300003D042680A434260704742688A43426075
:100F40007047002A03D002690A43026170470269B0
:100F50008A4302617047B0B5846825468D43C368F3
:100F6000012A04D08B43002A02D10C4301E00B4339
:100F70002C468460C360B0BDC0690840411E8841F2
:100F80007047002A02D024228150704728228150C5
:100F900070470000F0B581B00E46212041020025C7
:100FA000012428462A462346FFF724FF102106275E
:100FB00028463A46FFF7D8FD202128463A46FFF753
:100FC000D3FDF34F3846314600F0F4F93846294650
:100FD000224600F036FA38462146224600F031FA21
:100FE00001B0F0BD4A1E9141026801239A43511895
:100FF00001607047C068411A484248417047C1606B
:1010000070474A1E9141C900026808239A4351184B
:1010100001607047016802220A43026070470000C5
:10102000F0B581B00D4604460068852188432978D3
:10103000014368780843A978014321602889A060AA
:1010400000261D48844203D01C48844204D1022655
:101050003046FFF781FE06460320810320680840E2
:101060000121CA03904206D08903884205D0002896
:1010700005D1062004E0092002E0082000E000205D
:10108000009009207043696814274F433946FFF7E1
:10109000AAF9E978009A5518401BC11788432061C6
:1010A0000B2070433946FFF79EF9401BC117884358
:1010B000606101B0F0BDC046008004400090044073
:1010C00081B0002200920090009840180090009893
:1010D000006801B070478069C0B270478161704795
:1010E00003689B0708D503689B0705D503689B0722
:1010F00002D503689B07F3D4002A02D00122920292
:101100001143C161704780B584B0694600200881F1
:101110000390012212020192E12252020092FFF793
:1011200039FF04B080BD0000001F414241418800EA
:1011300012490A6804239A43101808607047C04691
:10114000012805D0002809D10C4800218160704792
:101150000A48016801220A43026070470748016893
:101160000122914301607047411E884140000349BC
:101170000A6802239A4310180860704710E000E0E4
:10118000014908607047C04614E000E0F0B586B041
:101190006948102103910160684801210160684A93
:1011A000D36A402402942343D362664B5C68272CA5
:1011B00008D05C68272C05D05C68272C02D05C68BE
:1011C000272CF3D14C021D68AD050FD41C601D689F
:1011D00025420BD11C601D68254207D11C601D688B
:1011E000254203D11C601D682542EFD01D682542B1
:1011F0000ED000251D601E68264209D01D601E68A5
:10120000264205D01D601E68264201D01D60EDE714
:1012100000230493036003208302156A9D43156233
:10122000CB0215681D43156053681B0708D453682B
:101230001B0705D453681B0702D453681B07F3D55B
:101240001368019003430425AB431360136B072617
:101250003340032B0BD0136B3340032B07D0136B9E
:101260003340032B03D0136B3340032BEED1364FA7
:101270003B680B430620009083433B600498D06199
:101280001368A34313600D02131F186828431860E6
:10129000059188021168014311605068400708D425
:1012A0005068400705D45068400702D45068400792
:1012B000F3D5D06A02998843D0621868A8431860B1
:1012C0000198000650611068204310605068800744
:1012D00008D45068800705D45068800702D450684D
:1012E0008007F3D538680221014305208143396026
:1012F0000498D061106805990843009988431060EC
:10130000106B304001280BD0106B3040012807D003
:10131000106B3040012803D0106B30400128EFD112
:101320003868039908433860059800033968014319
:10133000396006B0F0BDC0460C810840008308400B
:101340000480084004A106400002084010B5104C7B
:101350002021204600F028F8002817D0204600F071
:101360006BF80C4C21780C4A5054C0B20A280BD1AF
:1013700009480AA10522FEF714FF0021002804D124
:1013800008480122026000E0491C217010BDC046DF
:1013900000000440A0000020BC0000202B52435657
:1013A0003D0000003C01002000690840411E8841CA
:1013B00070470000B0B50D4604464068144901402E
:1013C000E8880843A988014328890843E96801435C
:1013D000616000200F498C4208DC012189078C42A2
:1013E0000CD00F498C420ED11C200AE00A498C42D5
:1013F00006D00A498C4206D11A2002E0182000E0EB
:101400001E20FFF7A9FC2968FEF7EDFF6062B0BD62
:10141000FCE0FFFFFFFF0340001004400000044019
:1014200000100040002A03D0C2680A43C26070471F
:10143000C2688A43C2607047006880B2704701602A
:10144000704710238B40002A03D041681943416044
:10145000704741689943416070470000F0B581B022
:101460000124A1032206002630462346FFF7C2FCD2
:101470000C21022730463A46FFF776FB1020062162
:10148000FFF7D4FC194D284639463A463346FFF754
:1014900047FB28463146FFF75CFB28463946324673
:1014A0003346FFF72FFB0321284622463346FFF73A
:1014B00029FB28462146FFF745FB284621462246C0
:1014C000FFF714FB0A48016840220A43BF218A4300
:1014D000026020029D49086028462146FFF7D7FA9E
:1014E00028462146FFF737FB01B0F0BD0000014060
:1014F00008E400E0F0B581B00C46FEF72BFF7D213B
:101500008F0078430B4D2946FEF78CFF0646204698
:10151000FEF720FF78432946FEF784FF8419E00F89
:1015200020184010FEF7F6FE022C00DA002001B071
:10153000F0BDC046FF0F000080B500F047FA80BD47
:10154000F0B583B00C46009001AF0821384600F09A
:101550002BF8F878B97809020818FEF7E7FE00259D
:101560000F4E2A463346FEF75DFEFEF720FF206051
:1015700004203956C8B200027A798018002902D5B1
:10158000084908404042FEF7D1FE2A463346FEF79E
:1015900049FEFEF70CFF0099086003B0F0BDC0469D
:1015A00000002440FF7F0000F0B585B00491039057
:1015B0004D4C5C2100222046FFF792FD4B4D20460A
:1015C0002946FFF717FD0028F9D019277801019067
:1015D00000F0CCF82046FFF71DFD0125EE040C219C
:1015E0002046FFF76DFD3042F9D169022046FFF732
:1015F00006FD5C2100222046FFF772FD3B4D204690
:101600002946FFF7F7FC0028F9D01D204504291DC5
:101610002046FFF7EFFC0028F9D020462946FFF7C7
:10162000E9FC0028F9D0029603212046FFF756FD79
:1016300020462946FFF7DEFC0028F9D00026204688
:101640003146FFF74BFD20462946FFF7D3FC002823
:10165000F9D004212046FFF741FD2046FFF7DAFCD0
:10166000029D0C212046FFF72BFD2842F9D10121D4
:101670002046FFF7B7FC019AE0325C212046FFF7D5
:101680002FFD1A4D20462946FFF7B4FC0028F9D05B
:10169000E91C2046FFF7AEFC0028F9D0049800288A
:1016A00016D00498451EB54203D100212046FFF70D
:1016B00099FC39042046FFF79DFC0028F9D020460C
:1016C000FFF709FD03998855761C04988642EAD1F4
:1016D0002046FFF79FFC029D0C212046FFF7F0FCFF
:1016E0002842F9D105B0F0BD009004400100180077
:1016F00070B5012422040026304631462346FFF708
:1017000079FBFF20000210490A688243E0031018A9
:10171000086060040D4908600D4D28463146FFF70A
:1017200019FB7D20C10057480068FEF75CFE0146AA
:101730002846FFF70DFB28462146FFF701FB284608
:101740002146FFF7F0FA70BD10E400E000E100E090
:101750000060074010B5002807D004467D20C00077
:1017600000F004F8641E2004F8D110BDF0B581B07B
:1017700005460420C4432046FFF7D6FC41480068D4
:101780004149FEF730FEFFF7FBFC00263046FFF72D
:10179000EBFC3046FFF7D4FC01273846FFF7D0FCBE
:1017A000002D30D003232A461A4038043749042D2F
:1017B00031D2002A27D00B68034208D10B680342BC
:1017C00005D10B68034202D10B680342F3D0012A12
:1017D00019D00B68034208D10B68034205D10B688E
:1017E000034202D10B680342F3D0022A0BD00A68ED
:1017F000024208D10A68024205D10A68024202D1B7
:101800000A680242F3D0E01CFFF79AFC0020FFF7C1
:1018100097FC01B0F0BD9D4302E0361DAE42C8D03A
:101820000B68034208D10B68034205D10B680342E1
:1018300002D10B680342F3D00B68034208D10B6856
:10184000034205D10B68034202D10B680342F3D077
:101850000B68034208D10B68034205D10B680342B1
:1018600002D10B680342F3D00B680342D5D10B6859
:101870000342D2D10B680342CFD10B680342F3D0AD
:10188000CBE7C0461800002000127A0010E000E00C
:1018900080B500F013F807490968401A064909683D
:1018A000FEF7C0FD2B494218521E8A4200D200208A
:1018B00080BDC0460800002010000020F0B581B0B7
:1018C00000F0E0F900F0D4F9ED4D08212846FFF7CB
:1018D00053FB0028F9D10024274600F0C1F9012666
:1018E0003046FFF743FF00F0C3F93046FFF73EFFF5
:1018F00008212846FFF740FB411E884161000C1873
:10190000781C172F0746E8D300F0AAF93046FFF7F6
:101910002DFF00F0ADF93046FFF728FFF0054440F9
:10192000204601B0F0BDC04680B500F015F807496B
:101930000968401A06490968FEF774FD054942180E
:10194000521E8A4200D2002080BDC0460C000020FA
:101950001400002079ECFFFFF0B581B000F0B0F981
:1019600000F0A6F9DD4D08212846FFF705FB002809
:10197000F9D10024274600F093F901263046FFF7FD
:10198000F5FE00F095F93046FFF7F0FE08212846F5
:10199000FFF7F2FA411E884161000C18781C172FDE
:1019A0000746E8D300F07CF93046FFF7DFFE00F091
:1019B0007FF93046FFF7DAFEF0054440204601B0DB
:1019C000F0BDC04680B500F08BF980BD70B584B025
:1019D00001242004104900252A462346FFF70AFA6D
:1019E0000726284621463246FFF7BEF80221284640
:1019F0003246FFF7B9F801A90A200881074802908A
:101A00000195074D2846FFF70BFB28462146FFF7B7
:101A1000F8FA04B070BDC046024000001027000074
:101A200000900440F0B581B00125A80400242146AF
:101A300022462B46FFF7DEF9AE02114F38463146FB
:101A40002A46FFF709FA384631462A46FFF7FAF9DF
:101A5000384631462246FFF794FA01B0F0BDC04641
:101A600080B5012291020648FFF78BFA80BDC0467F
:101A700080B50120810202480022FFF782FA80BD72
:101A800000400B4088B00025079506950120019085
:101A90000590FFF738FBFFF72BFE00F055F8FFF736
:101AA0004BFDFFF78FFFFFF7D9FCFFF7BBFF484F58
:101AB0004A4C029507E0FFF7DBFF0198059025608F
:101AC0003220FFF747FE00F043F83868002823D0A3
:101AD000FFF7DEFE0490FFF727FF064607A806A9DA
:101AE000FFF72EFD174D2868FEF714FC07466868BF
:101AF000FEF710FC01463846FFF7FCFCFEF72AFC17
:101B0000079B069900910499314F029D324600F0DF
:101B10006DF800F065F83D6020680028D0D0059889
:101B2000002803D0FFF7B4FE03900595FFF7B0FE41
:101B300023490968039A89188142BCD9FFF790FFAD
:101B4000BEE7C046A800002080B500F043F980BD84
:101B5000F0B581B0174F3868012828D11648174EC4
:101B60003146FEF72DFB002420463146FEF728FBC8
:101B700020463146FEF724FB054620463146FEF757
:101B80001FFBFEF741FB0E4908600EA12846FEF739
:101B9000FAFA002807D00FA12846FEF7F4FA002829
:101BA00004D10E4800E00A48012101603C6001B008
:101BB000F0BDC0463C010020BC00002054280000BD
:101BC000B4000020526573706F6E736500000000F2
:101BD000B80000204665656400000000B0000020E9
:101BE00080B59E48184900F03FF980BDF0B5A7B018
:101BF0001646069105461846FEF7C5FB07460C46F5
:101C00002C98FEF7C0FB0297039404900591009670
:101C100007AE08A130462A46069B00F03DF9304643
:101C2000FEF7AAFA0246084808A1334600F034F944
:101C300027B0F0BD25642C25752C25752C252E315B
:101C4000662C252E316600002000002041542B53C5
:101C5000454E443D36392C25752C25730D0A000060
:101C600080B55A4804210122FFF78BF980BDC04698
:101C700080B5564804210022FFF783F980BDC04695
:101C800000600B40B0B5514C082500222046294683
:101C9000FFF7D8F8012220462946FFF748F9B0BDE2
:101CA00080B54B4804210122FFF76BF980BDC04687
:101CB00080B5474804210022FFF763F980BDC04684
:101CC000B0B5434C0825002220462946FFF7BAF854
:101CD000012220462946FFF72AF9B0BD00200B401B
:101CE000F0B581B0052040040124A1030022234661
:101CF000FFF780F803270826384631462246FEF7CC
:101D000033FF0425384629462246FEF72DFF2F4F84
:101D10000222009238463146FFF71DF93846314617
:101D20002246FFF799F8384631462246FFF709F96F
:101D3000384631462246FFF785F838462946009A4C
:101D4000FFF709F9384629462246FFF785F8384655
:101D500029462246FFF7F5F8384629462246FFF77E
:101D600071F8204631462246FEF7FEFE20462946FF
:101D70002246FEF7F9FE164F38463146009AFFF725
:101D8000EAF8384631462246FFF766F838463146CB
:101D90002246FFF7D6F8384631462246FFF752F87A
:101DA00038462946009AFFF7D6F838462946224693
:101DB000FFF752F8384629462246FFF7C2F8384660
:101DC00029462246FFF73EF801B0F0BD00600B4007
:101DD00000200B40F0B585B00124200421214902E8
:101DE00000252A462346FFF705F81B4820263146E2
:101DF0002A46FFF7B0F81021062728463A46FEF794
:101E0000B3FE284631463A46FEF7AEFE0495200260
:101E10000290E120400201900395104E01A9304646
:101E2000FFF7C8FA0E480168FF22914301602006BF
:101E30000C490860304621462246FFF7F3FA304647
:101E400029462246FFF7FDFA304621462246FFF793
:101E5000F8FA05B0F0BDC04600000B400000044099
:101E600018E400E000E100E070B5054608780028BD
:101E700010D00C460026C1B22846FFF7E0FA8021B8
:101E80002846FFF791FA0028F9D0761CF0B2205CC2
:101E90000028F0D170BD00000FB410B504A9074BA5
:101EA00002AA039800F0F2F8044602A9002000F00C
:101EB00089FC204610BC08BC04B01847C5270000A8
:101EC0002021020C01D010211046020A01D0104638
:101ED0000839020901D01046091F820801D01046B6
:101EE000891E420801D0881E7047081A70470000FA
:101EF000004870470400002002E008C8121F08C113
:101F0000002AFAD170477047002001E001C1121F7A
:101F1000002AFBD170470000F0B51FB486B00998C5
:101F2000089A030D0021024314D05148514A181851
:101F3000504305141198012810981AD0281A401CF3
:101F400000264D4F4D49009601910490002812DA69
:101F5000444211E01198012449A3012801D11098AD
:101F6000C1430698119A84600360C26041600BB05F
:101F7000F0BD4042E4E70446210500203F4A001C32
:101F800051410391029012E0E00707D032463B46F0
:101F900001990098FEF73AFC0191009032463B46C9
:101FA00010461946FEF732FC06460F466410002C18
:101FB000EAD10498039B0028029A0999089806DA46
:101FC000FEF724FC019B009AFEF720FC05E0FEF7DB
:101FD00029F9019B009AFEF725F904460E460022D6
:101FE000284BFEF79BFC03D80020C043014607E0C6
:101FF0000022254B20463146FEF756FBFEF76EFCCD
:10200000102409E0002C0ADB0A220023FEF732FA32
:10201000079B30321A55641E02460A43F2D1112240
:10202000641C079B121B1C19119B012B03D001235D
:1020300008430ED10AE0084304D01120109000207C
:10204000119077E71098151A6D1E0BE010988242D8
:1020500002DD00236D1C03E0824201DA00236D1EC5
:10206000002BEED0069811998260C16030C07EE7E7
:1020700001FCFFFF104D0000000014400000F03F85
:10208000300000000000F0430000E03FFFB597B0D3
:102090000646002518E2252877D100242746FD4969
:1020A000049400E00443761C32780120203A9040EA
:1020B0000842F7D130782A280ED002223078014623
:1020C0003039092916D804990A2359433039401860
:1020D0001443761C0490F1E7189802C804911890F4
:1020E000002904DA012040030443484204900220FE
:1020F0000443761C30782E2814D1042004437078D1
:10210000761C2A2809D11898761C80C8189009E0F6
:102110000A214F43303FC719761C307801463039C9
:102120000929F5D930786C2810D006DC4C281AD053
:1021300068280ED06A2817D104E0742813D07A28B2
:1021400012D110E00120400504430CE001210905F3
:1021500001E0032109050C437178814203D101207C
:1021600000052418761C761C3078119066280BD058
:1021700013DC58287DD009DC00287BD04528F6D018
:102180004628F4D047281AD1A5E118E0632835D0B5
:10219000642870D0652812D19DE170286CD008DCCD
:1021A0006728F1D069287BD06E280DD06F2806D122
:1021B000BAE073282ED0752871D0782859D01A9A91
:1021C000199990476D1C7EE16002400F022809D0EA
:1021D00003280DD00428189801680DD00D60001D4B
:1021E000189070E11898EA1701680D604A60F6E7E8
:1021F000189801680D80F2E70D70F0E718986A46AC
:1022000001781172001D18900020507202A80090F1
:10221000012005E0189802C8189000200091C043E2
:1022200061070DD5002101E00199491C0191B942D6
:1022300012DA8142F8DB009A515C0029F4D10BE0FC
:10224000002101E00199491C01918142FADB019AC8
:102250000099895C0029F5D1019904981A9B471AC5
:1022600021463846199A00F097FA01994019451805
:102270000BE04FE02CE113E04EE00098009900786D
:10228000491C00911A9A199990470198401E019093
:10229000401CF2D1214638461A9B199A10E137E0CA
:1022A0000A200021009001916002410F022907D00D
:1022B000189A01CA1892C2179446032908D00AE056
:1022C0001898C01DC108C90005C91891944607E0B7
:1022D00000B2C2179446042902D140B2C1178C46FD
:1022E00000226146944506DA0A46002140429141A7
:1022F0008C462D2102E0210504D52B216A4611735D
:10230000012103E0E10701D02021F7E7029155E028
:102310000A200AE0102008E010200090002104208C
:1023200004430191082703E0082000210191009057
:102330006002410F022907D0189A01CA18920022A0
:102340009446032908D008E01898C01DC108C900A8
:1023500005C91891944603E080B2042900D1C0B2A7
:1023600000210291210729D51199702906D0009AE0
:102370001021019B4A401A4305D00EE040216A46D5
:102380001173012108E06146014306D030216A46FD
:1023900011731199517302210291009A0821019B36
:1023A0004A401A430AD16146014301D1610705D56C
:1023B00030216A46117301217F1E0291119958291B
:1023C00004D035A10E910DA90D910DE037A1F9E7CB
:1023D0006146019B009AFEF74DF80E9B8C469B5C74
:1023E0000D9A521E0D92137061460143F0D10D9863
:1023F00005A9081A20300190600703D501200004C8
:10240000844300E001270198874201DD381A00E08B
:102410000020019900904118029809180498401A68
:102420000490E00306D421461A9B199A049800F000
:10243000B3F94519002706E003A81A9AC05D199957
:1024400090476D1C7F1C02988742F5DBE0030CD59A
:1024500021461A9B199A049800F09EF9451904E048
:102460001A9A3020199990476D1C0099481E0090C7
:102470000029F5DC08E00D980D990078491C0D91B4
:102480001A9A199990476D1C0199481E01900029CC
:10249000F1DC63E10928010030313233343536375D
:1024A00038396162636465660000000030313233A0
:1024B0003435363738394142434445460000000040
:1024C00000F05AF94519761C3078002800D0E2E572
:1024D00028461BB0F0BD600700D406271898C01D21
:1024E000C108C90048680A680831C30FDB071891A2
:1024F000190001D09CA108E0210501D59BA104E0B1
:10250000E10701D09AA100E09AA1430011985B086D
:10251000109165280CD006DC452809D046281DD02E
:10252000472841D141E0662818D067283CD13CE0DB
:102530000021112F01DB112000E0781C0191009097
:1025400008A911A8FFF7E8FC139905910021119A39
:1025500015927F1C12980197009150E00120C0074E
:1025600003900120019008A9009711A8FFF7D4FC5F
:10257000139A149905920022119B009212981593B8
:10258000059A0192002901D0104602E0791C4018FA
:102590000190381A01D5019804E04042401E009095
:1025A000781C0190C01B029043E0012F00DA012744
:1025B0000021112F01DD112000E03846019100902B
:1025C00008A911A8FFF7A8FC13990591119A0021F9
:1025D000129815920091019721070CD40599B942E0
:1025E00001DB019900E00191012904DD159A491EE2
:1025F000515C302906D0B84201DA011D05DA01210B
:10260000029115E00199491EEDE7002805DC0099CB
:10261000411800910199091A03E0019A411C914265
:1026200000DD01910099401A401C02900120C00772
:102630000390200706D402990198814202DB002012
:10264000C043029000206946C87707AF0121039874
:102650000337C907884224D0022011902B20129002
:10266000039800280CDA404203902D20129007E0D6
:102670000A210398FDF7B7FE30317F1E03903970B1
:102680001199481E11900029F2DC03980028EFD11F
:10269000791E129808703078202108404530BF1EFE
:1026A000387006A8C01BC01D039010980078002841
:1026B00000D00120019941180298C0170918039809
:1026C00009180498401A401E0490E00306D42146DD
:1026D0001A9B199A049800F05FF845191098007831
:1026E000002803D01A9A199990476D1CE00324D54D
:1026F00021461A9B199A049800F04EF845191CE0DF
:102700000098002807DB00990598884203DD15989A
:10271000405C199901E0199930201A9A9047009865
:102720006D1C401C00900298401E0290002804D1AD
:102730001A9A2E20199990476D1C0199481E0190F4
:102740000029DDDC05E038781A9A7F1C199990473A
:102750006D1C0399481E03900029F4DC21461A9B46
:10276000199A0498ACE600002D0000002B00000030
:102770002000000000000000F8B5044600251E46B9
:102780001746880404D405E039462020B0476D1C64
:10279000641EF9D52846F8BDFFB50446002581B072
:1027A0001E46C80301D5302700E02027880404D541
:1027B00005E038460399B0476D1C641EF9D52846DC
:1027C00005B0F0BD0A68531C0B60107070470040E4
:1027D00040404040404040404141414141404040F4
:1027E0004040404040404040404040404040400524
:1027F000020202020202020202020202020202209B
:10280000202020202020202020020202020202029A
:1028100090909090909010101010101010101010B8
:1028200010101010101010101010020202020202FC
:102830008888888888880808080808080808080818
:1028400008080808080808080808020202024000F0
:10285000CF2700002C000000782800000000002096
:102860001C000000F81E000094280000200000203A
:1028700028030000081F0000000000000000000006
:10288000385D8200BA658100B5010000DA00000001
:04289000006CDC02FA
:04000005000000C136
:00000001FF
